:020000040000fa
:080000000002040000000000f2
:020000040000fa
:040008007809000073
:020000040000fa
:04000c00ba0900002d
:020000040000fa
:04001000fa090000e9
:020000040000fa
:040014009809000047
:020000040000fa
:04001800da09000001
:020000040000fa
:04001c009e0f000033
:020000040000fa
:040020001a0a0000b8
:020000040000fa
:040024009e0f00002b
:020000040000fa
:040028009e0f000027
:020000040000fa
:04002c00ea030000e3
:020000040000fa
:040030009e0f00001f
:020000040000fa
:040034009e0f00001b
:020000040000fa
:040038009e0f000017
:020000040000fa
:04003c009e0f000013
:020000040000fa
:040040009e0f00000f
:020000040000fa
:04004400640a00004a
:020000040000fa
:040048009e0f000007
:020000040000fa
:04004c009e0f000003
:020000040000fa
:040050009e0f0000ff
:020000040000fa
:040054006a05000039
:020000040000fa
:040058000a05000095
:020000040000fa
:04005c009e0f0000f3
:020000040000fa
:040060009e0f0000ef
:020000040000fa
:040064009e0f0000eb
:020000040000fa
:040068009e0f0000e7
:020000040000fa
:04006c00920a0000f4
:020000040000fa
:040070009e0f0000df
:020000040000fa
:040074009e0f0000db
:020000040000fa
:040078009e0f0000d7
:020000040000fa
:04007c009e0f0000d3
:020000040000fa
:040080009e0f0000cf
:020000040000fa
:040084009e0f0000cb
:020000040000fa
:040088009e0f0000c7
:020000040000fa
:04008c009e0f0000c3
:020000040000fa
:040090009e0f0000bf
:020000040000fa
:0400940080040000e4
:020000040000fa
:040098002004000040
:020000040000fa
:04009c009e0f0000b3
:020000040000fa
:0400a0009e0f0000af
:020000040000fa
:0400a4009e0f0000ab
:020000040000fa
:0400a8009e0f0000a7
:020000040000fa
:0400ac009e0f0000a3
:020000040000fa
:0400b0009e0f00009f
:020000040000fa
:0400b4009e0f00009b
:020000040000fa
:0400b8009e0f000097
:020000040000fa
:0400bc009e0f000093
:020000040000fa
:0400c000180d000017
:020000040000fa
:0400c4009e0f00008b
:020000040000fa
:0400c8009e0f000087
:020000040000fa
:0400cc009e0f000083
:020000040000fa
:0400d0009e0f00007f
:020000040000fa
:0400d4009e0f00007b
:020000040000fa
:0400d8009e0f000077
:020000040000fa
:0400dc009e0f000073
:020000040000fa
:0400e0009e0f00006f
:020000040000fa
:0400e4009e0f00006b
:020000040000fa
:0400e8009e0f000067
:020000040000fa
:0400ec00d605000035
:020000040000fa
:0400f000ec0400001c
:020000040000fa
:0400f4009e0f00005b
:020000040000fa
:0400f8009e0f000057
:020000040000fa
:0400fc009e0f000053
:020000040000fa
:040100009e0f00004e
:020000040000fa
:040104009e0f00004a
:020000040000fa
:040108009e0f000046
:020000040000fa
:04010c009e0f000042
:020000040000fa
:040110009e0f00003e
:020000040000fa
:040114009e0f00003a
:020000040000fa
:040118009e0f000036
:020000040000fa
:04011c009e0f000032
:020000040000fa
:040120009e0f00002e
:020000040000fa
:040124009e0f00002a
:020000040000fa
:040128009e0f000026
:020000040000fa
:04012c009e0f000022
:020000040000fa
:040130009e0f00001e
:020000040000fa
:040134009e0f00001a
:020000040000fa
:040138009e0f000016
:020000040000fa
:04013c009e0f000012
:020000040000fa
:040140009e0f00000e
:020000040000fa
:040144009e0f00000a
:020000040000fa
:040148009e0f000006
:020000040000fa
:04014c009e0f000002
:020000040000fa
:040150009e0f0000fe
:020000040000fa
:040154009e0f0000fa
:020000040000fa
:040158009e0f0000f6
:020000040000fa
:04015c009e0f0000f2
:020000040000fa
:040160009e0f0000ee
:020000040000fa
:040164009e0f0000ea
:020000040000fa
:040168009e0f0000e6
:020000040000fa
:04016c009e0f0000e2
:020000040000fa
:040170009e0f0000de
:020000040000fa
:040174009e0f0000da
:020000040000fa
:040178009e0f0000d6
:020000040000fa
:04017c009e0f0000d2
:020000040000fa
:040180009e0f0000ce
:020000040000fa
:040184009e0f0000ca
:020000040000fa
:040188009e0f0000c6
:020000040000fa
:04018c009e0f0000c2
:020000040000fa
:040190009e0f0000be
:020000040000fa
:04019400f40500006e
:020000040000fa
:04019800300600002d
:020000040000fa
:04019c006c060000ed
:020000040000fa
:0401a000a8060000ad
:020000040000fa
:0401a400e40600006d
:020000040000fa
:0401a8009e0f0000a6
:020000040000fa
:0401ac009e0f0000a2
:020000040000fa
:0401b0002007000024
:020000040000fa
:0401b4009e0f00009a
:020000040000fa
:0401b8005c070000e0
:020000040000fa
:0401bc009e0f000092
:020000040000fa
:0401c0009e0f00008e
:020000040000fa
:0401c4009807000098
:020000040000fa
:0401c800d407000058
:020000040000fa
:0401cc001008000017
:020000040000fa
:0401d0009e0f00007e
:020000040000fa
:0401d4004c080000d3
:020000040000fa
:0401d8008808000093
:020000040000fa
:0401dc00c408000053
:020000040000fa
:0401e0000009000012
:020000040000fa
:0401e4003c090000d2
:020000040000fa
:0401e8009e0f000066
:020000040000fa
:0401ec009e0f000062
:020000040000fa
:0401f0009e0f00005e
:020000040000fa
:0401f4009e0f00005a
:020000040000fa
:0401f8009e0f000056
:020000040000fa
:0401fc009e0f000052
:020000040000fa
:040200009e0f00004d
:020000040000fa
:040204009e0f000049
:020000040000fa
:040208009e0f000045
:020000040000fa
:04020c009e0f000041
:020000040000fa
:040210009e0f00003d
:020000040000fa
:040214009e0f000039
:020000040000fa
:040218009e0f000035
:020000040000fa
:04021c009e0f000031
:020000040000fa
:040220009e0f00002d
:020000040000fa
:040224009e0f000029
:020000040000fa
:040228009e0f000025
:020000040000fa
:04022c009e0f000021
:020000040000fa
:040230009e0f00001d
:020000040000fa
:040234009e0f000019
:020000040000fa
:040238009e0f000015
:020000040000fa
:04023c009e0f000011
:020000040000fa
:040240009e0f00000d
:020000040000fa
:040244009e0f000009
:020000040000fa
:040248009e0f000005
:020000040000fa
:04024c009e0f000001
:020000040000fa
:040250009e0f0000fd
:020000040000fa
:040254009e0f0000f9
:020000040000fa
:040258009e0f0000f5
:020000040000fa
:04025c009e0f0000f1
:020000040000fa
:040260009e0f0000ed
:020000040000fa
:040264009e0f0000e9
:020000040000fa
:040268009e0f0000e5
:020000040000fa
:04026c009e0f0000e1
:020000040000fa
:040270009e0f0000dd
:020000040000fa
:040274009e0f0000d9
:020000040000fa
:040278009e0f0000d5
:020000040000fa
:04027c009e0f0000d1
:020000040000fa
:040280009e0f0000cd
:020000040000fa
:040284009e0f0000c9
:020000040000fa
:040288009e0f0000c5
:020000040000fa
:04028c009e0f0000c1
:020000040000fa
:040290009e0f0000bd
:020000040000fa
:040294009e0f0000b9
:020000040000fa
:040298009e0f0000b5
:020000040000fa
:04029c009e0f0000b1
:020000040000fa
:0402a0009e0f0000ad
:020000040000fa
:0402a4009e0f0000a9
:020000040000fa
:0402a8009e0f0000a5
:020000040000fa
:0402ac009e0f0000a1
:020000040000fa
:0402b0009e0f00009d
:020000040000fa
:0402b4009e0f000099
:020000040000fa
:0402b8009e0f000095
:020000040000fa
:0402bc009e0f000091
:020000040000fa
:0402c0009e0f00008d
:020000040000fa
:0402c4009e0f000089
:020000040000fa
:0402c8009e0f000085
:020000040000fa
:0402cc009e0f000081
:020000040000fa
:0402d0009e0f00007d
:020000040000fa
:0402d4009e0f000079
:020000040000fa
:0402d8009e0f000075
:020000040000fa
:0402dc009e0f000071
:020000040000fa
:0402e0009e0f00006d
:020000040000fa
:0402e4009e0f000069
:020000040000fa
:0402e8009e0f000065
:020000040000fa
:0402ec009e0f000061
:020000040000fa
:0402f0009e0f00005d
:020000040000fa
:0402f4009e0f000059
:020000040000fa
:0402f8009e0f000055
:020000040000fa
:0402fc009e0f000051
:020000040000fa
:040300009e0f00004c
:020000040000fa
:040304009e0f000048
:020000040000fa
:040308009e0f000044
:020000040000fa
:04030c009e0f000040
:020000040000fa
:040310009e0f00003c
:020000040000fa
:040314009e0f000038
:020000040000fa
:040318009e0f000034
:020000040000fa
:04031c00ec050000ec
:020000040000fa
:0403200002050000d2
:020000040000fa
:10040000ef0d21000eff24000e01880000002000e7
:100410000000e000020032000001200020028800fd
:1004200014000700c70607000000e00003003a00c0
:10043000802c220001002000020037000000200074
:1004400001002000810f70004220ae000f00070065
:10045000000020000000e0004220ae00000002008a
:100460000000000076230200000000000040da00d7
:100470000000fe00200020000000e000020032002a
:10048000100020009001880000000600a1028800f2
:10049000800478000000eb001f003700e284440075
:1004a00054a0b4009905ba00e284440054a0b400fa
:1004b0009906ba00e284440054a0b4000006eb00a0
:1004c000476fde00fd07b200ae018800636ce100fb
:1004d00003003a000ad801000000eb000e003700cc
:1004e000606ce10008003a00004deb000a05e800ee
:1004f000020039003420ec000af0a0008b05e9006e
:10050000f9ff3e00040037006168e100010032009d
:100510000086eb000b00070019c7ba001905ba00e6
:100520000e04e00003003a000a00e000dbff3a009e
:1005300000000600fe07b200ae0288008a047800c0
:10054000f5ff37000cd0a300e20f4d001c003b006c
:1005500089027800354dba000a05e800020039002a
:100560003420ec000af0a0008b05e9000f003200f7
:10057000254dba000a05e800020039003420ec00dd
:100580000af0a0008b05e900080032000c00e00032
:100590000600320015cdba000a05e8000200390055
:1005a0003420ec000af0a0008b05e9008984e80003
:1005b00054a0b4000b00e000e2ff3a000000060087
:1005c0009902ba00055d78008b05e900f7ff32005b
:1005d000c82ade00055d78008b05e900f3ff3200d4
:1005e0000c00e000f1ff320019ddba00eeff370029
:1005f0006100e10001003200100005005400f80025
:1006000010102000a002880000f925001000ba0098
:100610005400f9000700220000f0a6008703d10073
:100620000703780001c4fe000003eb000120200056
:1006300091018800c1372a00111303008703e900e4
:10064000fdff3a0000f0a7000000050000f0a00048
:1006500080c4fe0086037800f3ff37000408200002
:10066000010037000002eb006100e10001003200f0
:10067000100005003200f8003400f8008102780014
:10068000930188003200be000100e0000c0032003f
:100690000470a70000f0a00032037800c733de002a
:1006a000848343004220af008703e800a70188004d
:1006b000f607b2007f30e100040032002000200085
:1006c0003400f9003200f900000006008100e90062
:1006d0000500e00003003a00018009003210030029
:1006e000e8ff37000180090032900300d561ae00b9
:1006f000e4ff370030002000f1ff370050052000f4
:10070000b00e8800a00a2000b00e8800d3e1a80037
:100710000000060050052000b00e8800a00a20004e
:10072000b00e8800d3e1a900000006007a21040081
:10073000000000000c100400000000002a1004005b
:10074000000000009813040000000000b61304002d
:1007500000000000e8170400000000001618040064
:10076000000000002a180400000000003e180400e9
:100770000000000052180400000000006618040089
:10078000000000007a180400000000008e18040029
:1007900000000000a218040000000000b6180400c9
:1007a00000000000ca18040000000000de18040069
:1007b00000000000f2180400000000000619040008
:1007c000000000001a190400000000002e190400a7
:1007d000000000003600f800809fbe00829fbe002f
:1007e000849fbe00869fbe000000fa0060838000e8
:1007f0000000e00002003200608380000000010081
:10080000d00d2100104078008040e800d00d21007c
:1008100001487800c00d210011c0b30001487800e4
:100820000028a9000080fa004f03be004f02be005e
:100830004f01be004f00be003600f9000040060028
:100840003600f800809fbe00829fbe00849fbe00dd
:10085000869fbe000000fa00d08280000000e00009
:1008600002003200d082800000000100b1828000ce
:10087000a0828000808f500002003a002388a900e7
:10088000180037000388a90010003700b0828000ec
:10089000904078008180fb00811388000000e80010
:1008a000b0828800b182800090092100808f5000c2
:1008b00002003a0000092100b0828800b182800065
:1008c000a0828000808f500005003200301380002d
:1008d000700060000000e000ecff32000100370013
:1008e000000000000080fa004f03be004f02be006f
:1008f0004f01be004f00be003600f9000040060068
:100900003600f800809fbe00829fbe00849fbe001c
:10091000869fbe000000fa00e08280000000e00038
:1009200002003200e0828000000001000368a9009c
:100930001e00370081828000601380000040780034
:100940008048780081828000100a2100808f50004a
:1009500009003200808280000000e800918280005f
:10096000810f500004003200808280000000e80007
:10097000808288000d00370081828000100a2100eb
:10098000808f500007003a0091828000900921007a
:10099000808f50000300320090092100808288007f
:1009a0000200370010c0b30058f0b70030138000c9
:1009b000620060000000e000deff32000080fa000c
:1009c0004f03be004f02be004f01be004f00be00ed
:1009d0003600f90000400600801f78000000fa0091
:1009e00020138000620060000000e000010032007f
:1009f0006422a9000648a9000080fa004f00780090
:100a0000004006000000fa0017c8a9000080fa00a4
:100a1000004006003600f800809fbe00829fbe00a6
:100a2000849fbe00869fbe000000fa0040838000c5
:100a30000000e0000200320040838000000001005e
:100a40002183800010838000808f500002003a00d4
:100a50002188a900180037000188a900100037007c
:100a600020838000904078008180fb004112880044
:100a70000000e8002083880021838000b00a210064
:100a8000808f500002003a00200a21002083880055
:100a90002183800010838000808f50000500320089
:100aa000f0118000700060000000e000ecff3200f8
:100ab00001003700000000000080fa004f03be0074
:100ac0004f02be004f01be004f00be003600f900cd
:100ad000004006003600f800809fbe00829fbe00e6
:100ae000849fbe00869fbe000000fa0050838000f5
:100af0000000e0000200320050838000000001008e
:100b00000168a9001e003700f182800020128000d9
:100b10000040780080487800f1828000300b21008e
:100b2000808f500009003200f08280000000e80051
:100b300001838000810f500004003200f0828000a9
:100b40000000e800f08288000d003700f18280008c
:100b5000300b2100808f500007003a000183800095
:100b6000b00a2100808f500003003200b00a21003b
:100b7000f08288000200370010c0b30066f0b700b2
:100b8000f0118000620060000000e000deff320033
:100b90000080fa004f03be004f02be004f01be00ae
:100ba0004f00be003600f90000400600801f7800ac
:100bb0000000fa00e0118000620060000000e00028
:100bc000010032003c22a9000628a9000080fa009a
:100bd0004f007800004006000000fa0017a8a900a6
:100be0000080fa00004006003600f800809fbe003a
:100bf000829fbe00849fbe00869fbe003200f80028
:100c00003400f80010002000a0018800100020002f
:100c100000d0fe000200fa0061608000010f780041
:100c2000108080000000e00003003200118080008e
:100c30001e007800010001000b68a9000080fa0086
:100c40003400f9003200f9004f03be004f02be002d
:100c50004f01be004f00be003600f9000040060004
:100c60003600f800809fbe00829fbe00849fbe00b9
:100c7000869fbe003200f8003400f800100020000b
:100c8000a00188001000200000d0fe000200fa0041
:100c900071608000010f7800208080000000e0007b
:100ca00003003200218080001e0078000100010056
:100cb0000b88a9000080fa003400f9003200f90026
:100cc0004f03be004f02be004f01be004f00be00ea
:100cd0003600f900004006003600f800809fbe0094
:100ce000829fbe00849fbe00869fbe003200f80037
:100cf0003400f80010002000a0018800100020003f
:100d000000d0fe000200fa0081608000010f780030
:100d1000308080000000e00003003200318080005d
:100d20001e007800010001000ba8a9000080fa0055
:100d30003400f9003200f9004f03be004f02be003c
:100d40004f01be004f00be003600f9000040060013
:100d50003600f800809fbe00829fbe00849fbe00c8
:100d6000869fbe003200f8003400f800100020001a
:100d7000a00188001000200000d0fe000200fa0050
:100d800091608000010f7800408080000000e0004a
:100d900003003200418080001e0078000100010045
:100da0000bc8a9000080fa003400f9003200f900f5
:100db0004f03be004f02be004f01be004f00be00f9
:100dc0003600f900004006003600f800809fbe00a3
:100dd000829fbe00849fbe00869fbe003200f80046
:100de0003400f80010002000a0018800100020004e
:100df00000d0fe000200fa00a1608000010f780020
:100e0000508080000000e00003003200518080002c
:100e10001e007800010001000be8a9000080fa0024
:100e20003400f9003200f9004f03be004f02be004b
:100e30004f01be004f00be003600f9000040060022
:100e40003600f800809fbe00829fbe00849fbe00d7
:100e5000869fbe003200f8003400f8001000200029
:100e6000a00188001000200000d0fe000200fa005f
:100e7000d1608000010f7800608080000000e000f9
:100e800003003200618080001e0078000100010034
:100e90000c48a9000080fa003400f9003200f90083
:100ea0004f03be004f02be004f01be004f00be0008
:100eb0003600f900004006003600f800809fbe00b2
:100ec000829fbe00849fbe00869fbe003200f80055
:100ed0003400f80010002000a0018800100020005d
:100ee00000d0fe000200fa00f1608000010f7800df
:100ef000708080000000e0000300320071808000fc
:100f00001e007800010001000c88a9000080fa0092
:100f10003400f9003200f9004f03be004f02be005a
:100f20004f01be004f00be003600f9000040060031
:100f30003600f800809fbe00829fbe00849fbe00e6
:100f4000869fbe003200f8003400f8001000200038
:100f5000a00188001000200000d0fe000200fa006e
:100f600021618000010f7800808080000000e00097
:100f700003003200818080001e0078000100010023
:100f80000ce8a9000080fa003400f9003200f900f2
:100f90004f03be004f02be004f01be004f00be0017
:100fa0003600f900004006003600f800809fbe00c1
:100fb000829fbe00849fbe00869fbe003200f80064
:100fc0003400f80010002000a0018800100020006c
:100fd00000d0fe000200fa0031618000010f7800ad
:100fe000908080000000e0000300320091808000cb
:100ff0001e007800010001000d08a9000080fa0021
:101000003400f9003200f9004f03be004f02be0069
:101010004f01be004f00be003600f9000040060040
:101020003600f800809fbe00829fbe00849fbe00f5
:10103000869fbe003200f8003400f8001000200047
:10104000a00188001000200000d0fe000200fa007d
:1010500041618000010f7800a08080000000e00066
:1010600003003200a18080001e0078000100010012
:101070000d28a9000080fa003400f9003200f900c0
:101080004f03be004f02be004f01be004f00be0026
:101090003600f900004006003600f800809fbe00d0
:1010a000829fbe00849fbe00869fbe003200f80073
:1010b0003400f80010002000a0018800100020007b
:1010c00000d0fe000200fa0061618000010f78008c
:1010d000b08080000000e00003003200b18080009a
:1010e0001e007800010001000d68a9000080fa00d0
:1010f0003400f9003200f9004f03be004f02be0079
:101100004f01be004f00be003600f900004006004f
:101110003600f800809fbe00829fbe00849fbe0004
:10112000869fbe003200f8003400f8001000200056
:10113000a00188001000200000d0fe000200fa008c
:1011400071618000010f7800c08080000000e00025
:1011500003003200c18080001e0078000100010001
:101160000d88a9000080fa003400f9003200f9006f
:101170004f03be004f02be004f01be004f00be0035
:101180003600f900004006003600f800809fbe00df
:10119000829fbe00849fbe00869fbe003200f80082
:1011a0003400f80010002000a0018800100020008a
:1011b00000d0fe000200fa0081618000010f78007b
:1011c000d08080000000e00003003200d180800069
:1011d0001e007800010001000da8a9000080fa009f
:1011e0003400f9003200f9004f03be004f02be0088
:1011f0004f01be004f00be003600f900004006005f
:101200003600f800809fbe00829fbe00849fbe0013
:10121000869fbe003200f8003400f8001000200065
:10122000a00188001000200000d0fe000200fa009b
:1012300091618000010f7800e08080000000e000f4
:1012400003003200e18080001e00780001000100f0
:101250000dc8a9000080fa003400f9003200f9003e
:101260004f03be004f02be004f01be004f00be0044
:101270003600f900004006003600f800809fbe00ee
:10128000829fbe00849fbe00869fbe003200f80091
:101290003400f80010002000a00188001000200099
:1012a00000d0fe000200fa00a1618000010f78006a
:1012b000f08080000000e00003003200f180800038
:1012c0001e007800010001000de8a9000080fa006e
:1012d0003400f9003200f9004f03be004f02be0097
:1012e0004f01be004f00be003600f900004006006e
:1012f0003600f800809fbe00829fbe00849fbe0023
:10130000869fbe000000fa00c028a9000000eb0084
:10131000ea0c07000080fa004f03be004f02be0037
:101320004f01be004f00be003600f900004006002d
:101330003600f800809fbe00829fbe00849fbe00e2
:10134000869fbe000000fa00e10c0700c048a9001b
:1013500010002000d90c07000080fa004f03be00e7
:101360004f02be004f01be004f00be003600f90024
:10137000004006003600f800809fbe00829fbe003d
:10138000849fbe00869fbe000000fa00c068a900ce
:1013900020002000c90c07000080fa004f03be00a7
:1013a0004f02be004f01be004f00be003600f900e4
:1013b000004006003600f800809fbe00829fbe00fd
:1013c000849fbe00869fbe000000fa00c088a9006e
:1013d00030002000b90c07000080fa004f03be0067
:1013e0004f02be004f01be004f00be003600f900a4
:1013f000004006003600f800809fbe00829fbe00bd
:10140000849fbe00869fbe000000fa00c608a900a7
:1014100070002000a90c07000080fa004f03be00f6
:101420004f02be004f01be004f00be003600f90063
:10143000004006003600f800809fbe00829fbe007c
:10144000849fbe00869fbe000000fa0021468000f7
:1014500000102000008060000000e0000300320067
:10146000c508a900c0002000940c07002146800098
:1014700000022000008060000000e0000300320055
:10148000c4a8a900900020008c0c07002046800012
:10149000700060000000e00003003200c488a90072
:1014a000a0002000850c070020468000610060003d
:1014b0000000e00003003200c408a900b0002000d2
:1014c0007e0c0700ffff37003600f800809fbe004b
:1014d000829fbe00849fbe00869fbe000000fa006f
:1014e0000140800000082000008060000000e00053
:1014f00005003200800d210011c0b30001487800c2
:10150000f10a070000e8a9000080fa004f03be00be
:101510004f02be004f01be004f00be003600f90072
:10152000004006003600f800809fbe00829fbe008b
:10153000849fbe00869fbe000000fa000228a9001a
:101540002110800000082000008060000000e00002
:101550000900320004e2a9002830ef007081800009
:1015600064004000100078008000eb000108780063
:101570002e30ef0027013700408180008000eb0013
:10158000b200200003002000820f5000838f58001b
:1015900014013e00000601000b0037004700370031
:1015a00087003700b00037000b013700de0037003e
:1015b000f100370008013700f30037000901370058
:1015c0004200370060003700000221006400400044
:1015d00010007800620060000000e0000c013a009a
:1015e000000221000080e80010007800708188006f
:1015f000000221000080e800100078001040780010
:101600002af0b700000221000080e80010007800f6
:101610000080e8001000780060818800000221004e
:101620000080e80010007800e60040000002210081
:101630000080e80001087800000221000080e80036
:1016400090007800a00b2100808f500004003a0029
:1016500000022100410b21000080e8000108780011
:1016600000022100e4004000910078000100a10088
:101670006400400001087800000221000080e800ba
:10168000900078000002210010007800808f500048
:1016900006003a0000022100e400400091007800ba
:1016a0000110a00064004000010878000002a800ba
:1016b0002000200040818800d60037000022a800ca
:1016c0002000200040818800d200370021108000d7
:1016d00000002800008060000000e0000a003200e6
:1016e0000002210066004000104078008040e800c1
:1016f0000002210066004000014878004000200000
:1017000019070700c3003700808180008000d100e6
:10171000f00f200000806000a01088008081800011
:1017200061006000004078000004e0000300320027
:10173000b000200040818800b60037003000200053
:1017400040818800b300370021108000000028008d
:10175000008060000000e0000a003200000221006a
:1017600066004000104078008040e8000002210040
:10177000660040000148780040002000fa0607009b
:10178000a40037000022a800808180004800de000d
:10179000e6006000000f20000100700080818800da
:1017a000808180000000a0008081880010c0b3000c
:1017b00032f0b700200020004081880095003700fb
:1017c00032d0bf00e14f50000c0032006081800039
:1017d00010007800808188006081800064004000f3
:1017e00010007800a0818800608180000080e800ff
:1017f0001040780036f0b700010037003270ef007b
:1018000081818000f00f2000808f50000900360099
:10181000808180004800de00e6006000000f2000ac
:1018200001007000a0108800a00020004081880006
:101830007800370080818000a010880080818000bf
:1018400061006000004078000004e0000300320006
:1018500050002000408188006e00370030002000da
:10186000408188006b0037002110800000002800b4
:10187000008060000000e0000b0032000002210048
:1018800066004000104078008040e800000221001f
:10189000660040000148780005e2a90050002000e1
:1018a000b10607005b00370036d0bf008080fb0028
:1018b0008100e900cf08de00814078000040e900a7
:1018c00036f0b7000104e0001000320060818000b3
:1018d00066004000608188002ad0bf000040e90017
:1018e0002af0b7002ad0bf000004e00003003a004d
:1018f000200020009c060700460037000022a800b8
:10190000200020004081880042003700a081800034
:10191000904078008180fb00a11088000000e80062
:10192000a08188003b0037002110800000002800c3
:10193000008060000000e0000b0032000002210087
:1019400066004000104078008040e800000221005e
:101950006600400001487800400020008206070031
:1019600005e2a9002b0037000062a80080002000db
:1019700040818800270037008000200040818800d7
:101980000062a80023003700a0818000c110800001
:1019900081407800014878000000e800a0818800bc
:1019a00036d0bf000040e90036f0b70036d0bf00a7
:1019b0000004e0000400320000a2a9006000200042
:1019c000408188000200370000a2a80055060700e9
:1019d0000082a8000f0037002000200062060700e8
:1019e0000c00370000022100660040001040780023
:1019f0008040e800000221006600400001487800b5
:101a000060002000580607000000000001003700b9
:101a1000000000000080fa004f03be004f02be002d
:101a20004f01be004f00be003600f9000040060026
:101a30003600f800809fbe00829fbe00849fbe00db
:101a4000869fbe000000fa0004c8a90001118000b2
:101a500000082000008060000000e0000900320063
:101a600020e2a9004030ef00308280006400400096
:101a7000100078008000eb00010878004630ef008d
:101a800027013700008280008000eb00b2002000b8
:101a900003002000820f5000838f580014013e0085
:101aa000000601000b0037004700370087003700b1
:101ab000b00037000b013700de003700f1003700bf
:101ac00008013700f30037000901370042003700f2
:101ad000600037008003210064004000100078009f
:101ae000620060000000e0000c013a008003210069
:101af0000080e80010007800308288008003210018
:101b00000080e800100078001040780042f0b70034
:101b1000800321000080e800100078000080e800c9
:101b20001000780020828800800321000080e800f7
:101b300010007800e6004000800321000080e800eb
:101b400001087800800321000080e8009000780000
:101b5000c00c2100808f500004003a008003210057
:101b6000610c21000080e80001087800800321005a
:101b7000e4004000910078000100a10064004000f2
:101b800001087800800321000080e80090007800c0
:101b90008003210010007800808f500006003a007a
:101ba00080032100e4004000910078000110a000b3
:101bb00064004000010878001c02a80020002000fa
:101bc00000828800d60037001c22a80020002000d8
:101bd00000828800d2003700011180000000280038
:101be000008060000000e0000a0032008003210055
:101bf00066004000104078008040e800800321002b
:101c0000660040000148780040002000f60607000a
:101c1000c3003700408280008000d100f00f200018
:101c200000806000801188004082800061006000b8
:101c3000004078000004e00003003200b000200003
:101c400000828800b6003700300020000082880043
:101c5000b300370001118000000028000080600000
:101c60000000e0000a00320080032100660040000e
:101c7000104078008040e8008003210066004000aa
:101c80000148780040002000d7060700a400370074
:101c90001c22a800408280004800de00e6006000b0
:101ca000000f200001007000408288004082800008
:101cb0000000a0004082880010c0b3004af0b700c6
:101cc0002000200000828800950037004ad0bf0025
:101cd000e14f50000c00320020828000100078009c
:101ce000408288002082800064004000100078005c
:101cf00060828800208280000080e8001040780028
:101d00004ef0b700010037004a70ef0041828000ba
:101d1000f00f2000808f50000900360040828000c4
:101d20004800de00e6006000000f200001007000a7
:101d300080118800a0002000008288007800370011
:101d40004082800080118800408280006100600035
:101d5000004078000004e000030032005000200042
:101d6000008288006e00370030002000008288006a
:101d70006b00370001118000000028000080600027
:101d80000000e0000b0032008003210066004000ec
:101d9000104078008040e800800321006600400089
:101da0000148780021e2a900500020008e060700bb
:101db0005b0037004ed0bf008080fb008100e9004f
:101dc000cf08de00814078000040e9004ef0b70007
:101dd0000104e00010003200208280006600400014
:101de0002082880042d0bf000040e90042f0b700e6
:101df00042d0bf000004e00003003a0020002000b1
:101e000079060700460037001c22a80020002000a9
:101e10000082880042003700608280009040780095
:101e20008180fb00811188000000e800608288004a
:101e30003b00370001118000000028000080600096
:101e40000000e0000b00320080032100660040002b
:101e5000104078008040e8008003210066004000c8
:101e600001487800400020005f06070021e2a90039
:101e70002b0037001c62a800800020000082880030
:101e80002700370080002000008288001c62a80024
:101e90002300370060828000a1118000814078001b
:101ea000014878000000e800608288004ed0bf0042
:101eb0000040e9004ef0b7004ed0bf000004e00043
:101ec000040032001ca2a9006000200000828800eb
:101ed000020037001ca2a800320607001c82a800de
:101ee0000f003700200020003f0607000c003700dd
:101ef0008003210066004000104078008040e80028
:101f00008003210066004000014878006000200046
:101f10003506070000000000010037000000000047
:101f20000080fa004f03be004f02be004f01be000a
:101f30004f00be003600f900004006000040da0005
:081f40000000fe000000050096
:020000040000fa
:101f48000000fa002388a9002368a90000082000df
:101f5800001388006222ef006422ef0020022000b4
:101f680030138800200c2000401388006a22ef00fc
:101f78007422ef007622ef007822ef007a22ef0039
:101f88007c22ef007e22ef008022ef008222ef0009
:101f98008422ef0000092100b08288000009210096
:101fa800a082880090092100908288009009210071
:101fb800808288005870ef00c000210008000700e8
:101fc800a0022100150007002368a80061e2a8000c
:101fd80060a2a8006082a8000080fa000000060045
:101fe8000200fa00000f78001e0078000000e000f0
:101ff80003003a00c0002100d082880002003700a8
:102008009e007800d18288000080fa000000060057
:102018000000fa000080fa00000006000200fa0042
:10202800000f78001e0078000000e00003003a006e
:10203800a0022100e0828800020037009e0078009c
:10204800e18288000080fa00000006000000fa0023
:102058000080fa00000006000200fa000040eb00d1
:10206800004f78000000000091828000808280008c
:10207800808f5000fcff320090828000104f780063
:10208800908280000000e8009082880091828000a1
:10209800200a2100808f500002003a009009210098
:1020a800908288001e4078000080fa000000060038
:1020b8000200fa00004f7800000000001c00070032
:1020c8000004a2000004e000fcff3a00a0828000a7
:1020d8001e487800a08280000000e800a0828800e6
:1020e800a182800090092100808f500002003a00f0
:1020f80000092100a08288002388a8000080fa0037
:10210800000006000000fa009182800080828000b2
:102118000080680000f0a7000000ea000000ea0064
:102128004f00de00004078000080fa000000060042
:102138000400fa000e80e800b182800001087800ef
:10214800a18280000e80e80010007800808f500087
:10215800070031000e80e80090007800a08280001f
:10216800008050000000e900000f780006003700ea
:102178000e80e80090007800a08280000080500067
:1021880068004000000f78001e00780000f0a700eb
:102198000000ea000000ea004f00de00004078007e
:1021a8000080fa00000006000000fa00a18280000a
:1021b800b0828000808f500009003a00211380000f
:1021c800000820000080600000f0a7000000ea007e
:1021d8000000ea004f00de000040780001003700f0
:1021e8000040eb000080fa00000006000400fa003e
:1021f8000e80e800818280000108780091828000ca
:102208000e80e80010007800810f500007003100b0
:102218000e80e800900078009082800000805000d6
:1022280069004000000f7800040037000e80e800c5
:102238009000780090828000008f5000f00f2000fe
:102248009e007800808f50000200360000c0eb002e
:10225800020037001e007800004078000080fa0075
:10226800000006000400fa000e80e800b182800039
:1022780001087800a18280000e80e8001000780034
:10228800808f5000070031000e80e8009000780031
:10229800a0828000008050000000e900000f780054
:1022a800060037000e80e80090007800a0828000c9
:1022b8000080500068004000000f7800f00f2000f8
:1022c8009e007800808f50000200360000c0eb00ae
:1022d800020037001e007800004078000080fa00f5
:1022e800000006000800fa006401470000097800b1
:1022f8006600470001087800bcff07000080fb006b
:10230800000f780066004700100078009e0f50000c
:102318000200310066004700100f78008000eb00d3
:102328000e80e800010878000e0037004aff070019
:10233800e400470091007800804878006400470076
:10234800100078008000e800640047000108780069
:102358000e80e800100078008000e8000e80e80099
:10236800010878000e80e800100078009e0f5000e9
:10237800eeff39001e0078000080fa000000060019
:102388000800fa0064014700000978006600470069
:1023980001087800b3ff07000080fb00000f7800f9
:1023a80066004700100078009e0f500002003100c0
:1023b80066004700100f78008000eb000e80e800f0
:1023c800010878000e00370064004700100078000c
:1023d80010407800e4004700910078000101e8000f
:1023e800e40047008208780031ff07000e80e8000b
:1023f800100078008000e8000e80e80001087800ee
:102408000e80e800100078009e0f5000eeff3900a3
:102418001e0078000080fa00000006000400fa00a0
:102428000000eb00000f780070ff07008e80e800c6
:10243800804878008bff0700e30047008048780059
:102448000e80e800104078000080fb000000e000eb
:1024580003003200e90f5000030032000400370087
:102468001e20a000040037001e00a0000200370054
:102478001e10a00000000000630047001040780014
:102488000080fb000000e00003003200e90f50006c
:1024980003003200040037001e30a000020037009d
:1024a8001e40a000000000001e0078000080fa0016
:1024b800000006000400fa008e80e800800878001a
:1024c800918280000e80e80010007800008f4000a4
:1024d800020037009e007800698f5000200a210012
:1024e8009e007800808f5000faff3e001e007800a2
:1024f800104078000080fa00000006000000fa0092
:102508003aff07000080fb000000e9004f00de00f2
:10251800004078000080fa00000006000000fa0081
:1025280050ff07000080fb000000e9004f00de00bc
:10253800004078000080fa00000006000400fa005d
:10254800301380008000eb00008fbe001e00be002c
:10255800c001dd0002002000201380008000eb0095
:1025680000007100818071000080fa000000060000
:102578000000fa003bff07000004e00010003200f2
:10258800b1828000a0828000808f50000600360053
:10259800b082800080007800a08280000080500017
:1025a8000000e90007003700b08280008000780052
:1025b800a0828000008050006800400001003700c1
:1025c8000000eb000080fa00000006000000fa009e
:1025d80006ff07000004e00010003200918280002e
:1025e80080828000808f5000060036009082800034
:1025f8008000780080828000008050000000e900a0
:102608000700370090828000800078008082800078
:102618000080500068004000010037000000eb0017
:102628000080fa00000006000000fa0061e2a8003d
:1026380060a2a8006082a8000080fa0000000600de
:102648000000fa0061e2a90060a2a9006082a90066
:102658000080fa00000006000000fa002188a900a6
:102668002168a90000082000c01188003a22ef0064
:102678003c22ef0020022000f0118800200c2000ee
:10268800001288004222ef004c22ef004e22ef0099
:102698005022ef005222ef005422ef005622ef00a2
:1026a8005822ef005a22ef005c22ef00200a210096
:1026b80020838800200a210010838800b00a2100a6
:1026c80000838800b00a2100f08288006670ef005d
:1026d8008039210008000700603b21001500070031
:1026e8002168a80039e2a80038a2a8003882a8000a
:1026f8000080fa00000006000200fa00000f7800cf
:102708001e0078000000e00003003a008039210034
:1027180040838800020037009e00780041838800cb
:102728000080fa00000006000000fa000080fa00ad
:10273800000006000200fa00000f78001e00780072
:102748000000e00003003a00603b2100508388004d
:10275800020037009e007800518388000080fa004c
:10276800000006000000fa000080fa0000000600e1
:102778000200fa000040eb00004f78000000000063
:1027880001838000f0828000808f5000fcff3200bf
:1027980000838000104f7800008380000000e8006c
:1027a8000083880001838000400b2100808f500047
:1027b80002003a00b00a2100008388001e40780019
:1027c8000080fa00000006000200fa00004f7800be
:1027d800000000001c0007000004a2000004e00044
:1027e800fcff3a00108380001e48780010838000a8
:1027f8000000e8001083880011838000b00a2100df
:10280800808f500002003a00200a210010838800bf
:102818002188a8000080fa00000006000000fa00e5
:1028280001838000f08280000080680000f0a7002b
:102838000000ea000000ea004f00de0000407800d7
:102848000080fa00000006000400fa000e80e8008c
:102858002183800001087800118380000e80e80041
:1028680010007800808f5000070031000e80e800cb
:102878009000780010838000008050000000e9007c
:10288800000f7800060037000e80e80090007800fe
:10289800108380000080500068004000000f78001e
:1028a8001e00780000f0a7000000ea000000ea001f
:1028b8004f00de00004078000080fa0000000600ab
:1028c8000000fa001183800020838000808f500070
:1028d80009003a00e1118000000820000080600033
:1028e80000f0a7000000ea000000ea004f00de0048
:1028f80000407800010037000040eb000080fa003b
:10290800000006000400fa000e80e800f182800052
:1029180001087800018380000e80e800100078002c
:10292800810f5000070031000e80e8009000780009
:10293800008380000080500069004000000f78008c
:10294800040037000e80e8009000780000838000c3
:10295800008f5000f00f20009e007800808f5000fc
:102968000200360000c0eb00020037001e007800ad
:10297800004078000080fa00000006000400fa0019
:102988000e80e80021838000010878001183800010
:102998000e80e80010007800808f5000070031009a
:1029a8000e80e800900078001083800000805000be
:1029b8000000e900000f7800060037000e80e800ec
:1029c800900078001083800000805000680040006c
:1029d800000f7800f00f20009e007800808f5000d4
:1029e8000200360000c0eb00020037001e0078002d
:1029f800004078000080fa00000006000800fa0095
:102a08006401470000097800660047000108780063
:102a1800bcff07000080fb00000f7800660047003d
:102a2800100078009e0f5000020031006600470039
:102a3800100f78008000eb000e80e8000108780095
:102a48000e0037004aff0700e400470091007800b5
:102a58008048780064004700100078008000e80093
:102a680064004700010878000e80e8001000780034
:102a78008000e8000e80e800010878000e80e80079
:102a8800100078009e0f5000eeff39001e007800fd
:102a98000080fa00000006000800fa006401470000
:102aa800000978006600470001087800b3ff0700b6
:102ab8000080fb00000f78006600470010007800d7
:102ac8009e0f50000200310066004700100f78008a
:102ad8008000eb000e80e800010878000e00370047
:102ae800640047001000780010407800e4004700b8
:102af800910078000101e800e400470082087800ae
:102b080031ff07000e80e800100078008000e80020
:102b18000e80e800010878000e80e80010007800b8
:102b28009e0f5000eeff39001e0078000080fa006a
:102b3800000006000400fa000000eb00000f780017
:102b480070ff07008e80e800804878008bff070040
:102b5800e3004700804878000e80e80010407800c5
:102b68000080fb000000e00003003200e90f500085
:102b780003003200040037001e20a00004003700c4
:102b88001e00a000020037001e10a0000000000078
:102b980063004700104078000080fb000000e00060
:102ba80003003200e90f5000030032000400370030
:102bb8001e30a000020037001e40a00000000000e8
:102bc8001e0078000080fa00000006000400fa00e9
:102bd8008e80e80080087800018380000e80e8007d
:102be80010007800008f4000020037009e00780037
:102bf800698f5000400b21009e007800808f5000a4
:102c0800faff3e001e007800104078000080fa00ad
:102c1800000006000000fa003aff07000080fb00f1
:102c28000000e9004f00de00004078000080fa0054
:102c3800000006000000fa0050ff07000080fb00bb
:102c48000000e9004f00de00004078000080fa0034
:102c5800000006000400fa00f01180008000eb007c
:102c6800008fbe001e00be00c001dd000200200073
:102c7800e01180008000eb0000007100818071008d
:102c88000080fa00000006000000fa003bff070081
:102c98000004e000100032002183800010838000cf
:102ca800808f500006003600208380008000780066
:102cb80010838000008050000000e9000700370002
:102cc80020838000800078001083800000805000fe
:102cd80068004000010037000000eb000080fa00a7
:102ce800000006000000fa0006ff07000004e000ec
:102cf8001000320001838000f0828000808f500035
:102d0800060036000083800080007800f082800092
:102d1800008050000000e9000700370000838000b1
:102d280080007800f0828000008050006800400039
:102d3800010037000000eb000080fa0000000600e8
:102d48000000fa0039e2a80038a2a8003882a800da
:102d58000080fa00000006000000fa0039e2a9002d
:102d680038a2a9003882a9000080fa0000000600f5
:102d78000000fa00002bef00000620001058880021
:102d8800042bef00062bef00082bef000a2bef00b7
:102d9800102bef00122bef00142bef00f029270067
:102da80000598800f001200010598800382bef00e6
:102db800402bef00482bef00502bef003a2bef0091
:102dc800422bef004a2bef00522bef003c2bef0079
:102dd800442bef004c2bef00542bef003e2bef0061
:102de800462bef004e2bef00562bef000040200043
:102df800505b880000402000705b88000040200085
:102e0800905b880000402000b05b8800a02bef009a
:102e1800a42bef00a82bef00ac2bef00d02bef007a
:102e2800d22bef00f02bef00f22bef00022cef007b
:102e3800807e210067000700608121007d00070077
:102e4800a082210085000700e08321008d00070093
:102e58002085210095000700608621009d0007005d
:102e6800a0872100a5000700e0882100ad00070029
:102e7800208a2100b5000700608b2100bd000700f3
:102e8800a08c2100c5000700e08d2100cd000700bf
:102e9800208f2100d500070060902100dd00070089
:102ea800a0912100e5000700e0922100ed00070055
:102eb8000b68a9002b68a8000b88a9002b88a8001c
:102ec8000ba8a9002ba8a8000bc8a9002bc8a8000c
:102ed8000be8a9002be8a8000c48a9002c48a8007a
:102ee8000c88a9002c88a8000ce8a9002ce8a800e8
:102ef8000d08a9002d08a8000d28a9002d28a80054
:102f08000d68a9002d68a8000d88a9002d88a800c3
:102f18000da8a9002da8a8000dc8a9002dc8a800b3
:102f28000de8a9002de8a8001160800000f020003d
:102f3800010070001060880001eba800170007006e
:102f480010102000005c880010102000105c880021
:102f580010002000205c880000102000305c8800f1
:102f680000102000405c88008a2bef001010200021
:102f7800605c880010102000705c88001010200031
:102f8800805c880010102000905c880010002000f1
:102f9800a05c88000080fa00000006000000fa002b
:102fa80000eca8000000000001608000000028007c
:102fb800008060000000e000fbff32000aeba80080
:102fc8000080fa00000006000000fa000080fa0005
:102fd800000006000200fa00000f78001e007800ca
:102fe800008088000080fa00000006000000fa0057
:102ff8005140800000402000008060000000e00098
:1030080006003200008080000000e000020032006c
:1030180000808000000001000b48a9000080fa0031
:10302800000006000200fa00000f78000080fa0095
:10303800000006000200fa00000f78001e00780069
:10304800108088000080fa00000006000200fa00e4
:10305800000f78000080fa00000006000200fa0065
:10306800000f78001e007800208088000080fa0099
:10307800000006000200fa00000f78000080fa0045
:10308800000006000200fa00000f78001e00780019
:10309800308088000080fa00000006000200fa0074
:1030a800000f78000080fa00000006000200fa0015
:1030b800000f78001e007800408088000080fa0029
:1030c800000006000200fa00000f78000080fa00f5
:1030d800000006000200fa00000f78001e007800c9
:1030e800508088000080fa00000006000200fa0004
:1030f800000f78000080fa00000006000200fa00c5
:10310800000f78001e007800608088000080fa00b8
:10311800000006000200fa00000f78000080fa00a4
:10312800000006000200fa00000f78001e00780078
:10313800708088000080fa00000006000200fa0093
:10314800000f78000080fa00000006000200fa0074
:10315800000f78001e007800808088000080fa0048
:10316800000006000200fa00000f78000080fa0054
:10317800000006000200fa00000f78001e00780028
:10318800908088000080fa00000006000200fa0023
:10319800000f78000080fa00000006000200fa0024
:1031a800000f78001e007800a08088000080fa00d8
:1031b800000006000200fa00000f78000080fa0004
:1031c800000006000200fa00000f78001e007800d8
:1031d800b08088000080fa00000006000200fa00b3
:1031e800000f78000080fa00000006000200fa00d4
:1031f800000f78001e007800c08088000080fa0068
:10320800000006000200fa00000f78000080fa00b3
:10321800000006000200fa00000f78001e00780087
:10322800d08088000080fa00000006000200fa0042
:10323800000f78000080fa00000006000200fa0083
:10324800000f78001e007800e08088000080fa00f7
:10325800000006000200fa00000f78000080fa0063
:10326800000006000200fa00000f78001e00780037
:10327800f08088000080fa00000006000000fa00d4
:1032880000022100410b21000080e80001087800bd
:1032980000022100410b21000108780000022100f2
:1032a800e4004000910078000110a0006400400094
:1032b8000108780000022100e40040009100780035
:1032c8000100a1006400400001087800000221000c
:1032d8008040eb006600400001487800f0062000be
:1032e8008010880000002800001088000422ef00e9
:1032f8000228a9002228a8000080fa000000060081
:103308000200fa000002210066004000104f780019
:103318001e4078000080fa00000006000000fa0055
:103328006081800066004000608188002ad0bf006c
:103338000040e9002af0b7002ad0bf000004e000ee
:1033480003003a0040002000408188000200370056
:1033580010002000408188000080fa00000006006c
:103368000200fa00000f78000042a8007081800077
:1033780064004000100078000000e0000400320003
:103388007081800064004000100078001e087800fa
:103398002830ef000080fa00000006000800fa005c
:1033a800000f78000e80e8000148780064004700ac
:1033b8000208780066004700030878000002210030
:1033c8006400400010007800610060000000e00028
:1033d8000d003a0064004700900178000e80e80074
:1033e800104178009e007800000c2100930007002f
:1033f8006600470010017800010c210010c0b300de
:103408002800070004003700660047001000780015
:103418008000eb00010878000080fa000000060038
:103428000800fa00000f78000e80e80001487800d4
:103438006400470002087800660047000308780027
:103448000002210064004000100078006100600064
:103458000000e0000d003a00640047009001780089
:103468000e80e800104178009e007800a00b210033
:10347800540007006600470010017800a10b2100e6
:1034880010c0b300070007000400370066004700bb
:10349800100078008000eb00010878000080fa0036
:1034a800000006000600fa00004f78000e80e800d1
:1034b8000108780064004700020878000002210033
:1034c8006400400010007800610060000000e00027
:1034d80036003a0064004700100078001100200010
:1034e8000108780000022100100078000080e80040
:1034f8008e80e80011087800000221001000780092
:103508001e48780000022100100078006400400086
:10351800e40047001108780000022100100078003c
:10352800e6004000000221000108780000022100a6
:1035380090007800a00b2100808f500003003a0013
:1035480000022100410b210001087800000221003f
:10355800e4004000910078000110a10064004000e0
:1035680001087800000221000080e800900078003f
:103578000002210010007800808f500006003a00f9
:1035880000022100e4004000910078000100a00042
:103598006400400001087800408180000000e000dd
:1035a80006003a000228a80004003700640047001b
:1035b800100078008000eb00010878000080fa0015
:1035c800000006000800fa00000f78000e80e800ee
:1035d8000108780064004700024878006600470048
:1035e80003087800660047001000780000004000db
:1035f800800078001e007800010878001e0078001e
:1036080010007800800078000100a0001e007800fb
:10361800010878001e0078000080e800e4004700f8
:10362800114878001e007800640040008e80e80091
:10363800110878000080fa00000006000800fa006f
:10364800000f78000e80e800010878006400470049
:1036580002487800660047000308780066004700c3
:103668001000780000004000800078001e007800fc
:10367800010878001e0078000080e800e400470098
:10368800114878001e007800640040008e80e80031
:10369800110878000080fa00000006000000fa0017
:1036a8000002210064004000100078006200600001
:1036b80000f0a7000000ea000000ea004f00de006a
:1036c800004078000080fa00000006000000fa00c0
:1036d80000022100640040001000780061006000d2
:1036e80000f0a7000000ea000000ea004f00de003a
:1036f800004078000080fa00000006000000fa0090
:1037080080032100610c21000080e8000108780096
:1037180080032100610c210001087800800321004a
:10372800e4004000910078000110a000640040000f
:103738000108780080032100e4004000910078002f
:103748000100a10064004000010878008003210006
:103758008040eb006600400001487800001c200013
:103768006011880000002800e01088002022ef0087
:1037780004c8a90024c8a8000080fa0000000600b8
:103788000200fa008003210066004000104f780014
:103798001e4078000080fa00000006000000fa00d1
:1037a80020828000660040002082880042d0bf004e
:1037b8000040e90042f0b70042d0bf000004e0003a
:1037c80003003a0040002000008288000200370011
:1037d80010002000008288000080fa000000060027
:1037e8000200fa00000f78001c42a8003082800016
:1037f80064004000100078000000e000040032007f
:103808003082800064004000100078001e087800b4
:103818004030ef000080fa00000006000800fa00bf
:10382800000f78000e80e800014878006400470027
:10383800020878006600470003087800800321002a
:103848006400400010007800610060000000e000a3
:103858000d003a0064004700900178000e80e800ef
:10386800104178009e007800200d21009300070089
:103878006600470010017800210d210010c0b30038
:103888002800070004003700660047001000780091
:103898008000eb00010878000080fa0000000600b4
:1038a8000800fa00000f78000e80e8000148780050
:1038b80064004700020878006600470003087800a3
:1038c800800321006400400010007800610060005f
:1038d8000000e0000d003a00640047009001780005
:1038e8000e80e800104178009e007800c00c21008e
:1038f800540007006600470010017800c10c210041
:1039080010c0b30007000700040037006600470036
:10391800100078008000eb00010878000080fa00b1
:10392800000006000600fa00004f78000e80e8004c
:10393800010878006400470002087800800321002d
:103948006400400010007800610060000000e000a2
:1039580036003a006400470010007800110020008b
:103968000108780080032100100078000080e8003a
:103978008e80e8001108780080032100100078008c
:103988001e48780080032100100078006400400081
:10399800e400470011087800800321001000780037
:1039a800e600400080032100010878008003210020
:1039b80090007800c00c2100808f500003003a006e
:1039c80080032100610c2100010878008003210098
:1039d800e4004000910078000110a100640040005c
:1039e80001087800800321000080e800900078003a
:1039f8008003210010007800808f500006003a00f4
:103a080080032100e4004000910078000100a0003c
:103a18006400400001087800008280000000e00097
:103a280006003a0004c8a8000400370064004700f4
:103a3800100078008000eb00010878000080fa0090
:103a4800000006000800fa00000f78000e80e80069
:103a580001087800640047000248780066004700c3
:103a68000308780066004700100078000000400056
:103a7800800078001e007800010878001e00780099
:103a880010007800800078000100a0001e00780077
:103a9800010878001e0078000080e800e400470074
:103aa800114878001e007800640040008e80e8000d
:103ab800110878000080fa00000006000800fa00eb
:103ac800000f78000e80e8000108780064004700c5
:103ad800024878006600470003087800660047003f
:103ae8001000780000004000800078001e00780078
:103af800010878001e0078000080e800e400470014
:103b0800114878001e007800640040008e80e800ac
:103b1800110878000080fa00000006000000fa0092
:103b280080032100640040001000780062006000fb
:103b380000f0a7000000ea000000ea004f00de00e5
:103b4800004078000080fa00000006000000fa003b
:103b580080032100640040001000780061006000cc
:103b680000f0a7000000ea000000ea004f00de00b5
:103b7800004078000080fa00000006000000fa000b
:103b8800007c80000080fa00000006000200fa00b5
:103b9800faff0700000f78001e00780024000700d5
:103ba8000004e00002003200000028007d00070049
:103bb8001e0078002c0007000004e000020032001c
:103bc80000002400770007001e0078003600070078
:103bd8000004e0000200320000202000710007000d
:103be8001e007800400007000004e00002003200d8
:103bf800000820006b0007001e0078004a0007003c
:103c08000004e00002003200000420006500070004
:103c18001e007800540007000004e0000200320093
:103c2800000120005f0007000080fa000000060085
:103c38000400fa008e80e800800878000040eb005d
:103c4800004f78000e80e800100078000000e000c7
:103c580002003d0010c0b300004f78001e407800fd
:103c68000080fa00000006000400fa008e80e800d8
:103c7800800878000040eb00004f78000e80e800d4
:103c88009000780000002400008060000000e00040
:103c98000200320010c0b300004f78001e407800c8
:103ca8000080fa00000006000400fa008e80e80098
:103cb800800878000040eb00004f78000e80e80094
:103cc8009000780000202000008060000000e000e4
:103cd8000200320010c0b300004f78001e40780088
:103ce8000080fa00000006000400fa008e80e80058
:103cf800800878000040eb00004f78000e80e80054
:103d08009000780000082000008060000000e000bb
:103d18000200320010c0b300004f78001e40780047
:103d28000080fa00000006000400fa008e80e80017
:103d3800800878000040eb00004f78000e80e80013
:103d48009000780000042000008060000000e0007f
:103d58000200320010c0b300004f78001e40780007
:103d68000080fa00000006000400fa008e80e800d7
:103d7800800878000040eb00004f78000e80e800d3
:103d880010007800700060000000e00002003200bf
:103d980010c0b300004f78001e4078000080fa0081
:103da800000006000200fa00000f78001e80ea00fa
:103db800017c800001006000007c88000080fa001f
:103dc800000006000000fa00802fef000080fa00d3
:103dd800000006000000fa0011428000f0ff2800f1
:103de8000080600000c0a00010428800f1448000fc
:103df800f08f2f00008060000080a000f044880051
:103e08007142800080ff2f00008060000000a00049
:103e180070428800c1428000f08f2f00008060004f
:103e28000080a000c042880061428000f0ff2800a6
:103e38000080600000c0a00060428800f14480005b
:103e4800f0f82f00008060000040a000f0448800d7
:103e58003142800080ff2f00008060000000a00039
:103e680030428800c1428000f0f82f0000806000d6
:103e78000040a000c042880021428000f0ff2800d6
:103e88000080600000c0a00020428800a14380009c
:103e980080ff2f00008060000000a000a043880081
:103ea80091438000f0ff28000080600000c0a0005f
:103eb80090438800b1438000f08f2f00008060009d
:103ec8000080a000b0438800b1438000f0f82f00c4
:103ed800008060000040a000b0438800a14380003b
:103ee800f0f82f00008060000040a000a043880088
:103ef800b143800080ff2f00008060000000a00018
:103f0800b0438800a1438000f0ff280000806000d3
:103f180000c0a000a043880081438000f08f2f00dc
:103f2800008060000080a0008043880091438000ea
:103f380080ff2f00008060000000a00090438800f0
:103f4800b1438000f0ff28000080600000c0a0009e
:103f5800b043880061438000f0ff280000806000c3
:103f680000c0a000604388007143800080ff2f00dc
:103f7800008060000000a00070438800714380004a
:103f8800f0f82f00008060000040a0007043880017
:103f980071438000f08f2f00008060000080a00037
:103fa8007043880071438000f0ff280000806000a3
:103fb80000c0a0007043880041428000f0f82f0044
:103fc800008060000040a00040428800414280001c
:103fd80080ff2f00008060000000a00040428800a1
:103fe80091428000f08f2f00008060000080a000c8
:103ff8009042880091428000f0f82f000080600015
:104008000040a0009042880001428000f0f82f0094
:10401800008060000040a000004288000080fa0094
:10402800000006000000fa005029ef005229ef00b6
:104038005429ef005629ef005a29ef005c29ef00b8
:104048006029ef006229ef0000302200204b880031
:104058006629ef006829ef006c29ef007029ef004e
:104068007229ef0051e9a80000c8a90000e8a900da
:1040780020e8a8000080fa00000006000000fa000e
:10408800800d21008040eb0001487800900d210050
:104098008040eb0001487800a00d21008040eb0033
:1040a8000148780051e9a8000080fa0000000600e5
:1040b8000000fa0051e9a9000080fa00000006009b
:1040c8000000fa000080fa00000006000000fa0074
:1040d8000080fa00000006000000fa00014080009d
:1040e80000042000008060000000e00005003200ad
:1040f800f6ff0700900d210011c0b30001487800b9
:1041080000c8a9000080fa00000006000200fa00ba
:10411800000f78009e007800214b8800800d210058
:104128008040eb00014878000080fa00000006009b
:104138000200fa00000f78009e007800314b8800da
:10414800900d21008040eb00014878000080fa00c3
:10415800000006000000fa00204b80000080fa00f2
:10416800000006000000fa00304b80000080fa00d2
:10417800000006000200fa00000f78009e00780098
:10418800014b8800800d21008040eb000148780039
:104198000080fa00000006000200fa00000f780014
:1041a8009e007800114b8800900d21008040eb00a4
:1041b800014878000080fa00000006000000fa00bc
:1041c800004b80000080fa00000006000000fa00a2
:1041d800104b80000080fa00000006000200fa0080
:1041e800800d2100104f78001e4078000004e00088
:1041f80003003200800d21008040eb000148780068
:104208001e4078000080fa00000006000200fa0054
:10421800900d2100104f78001e4078000004e00047
:1042280003003200900d21008040eb000148780027
:104238001e4078000080fa00000006000000fa0026
:104248000421ef0010bf2200400888000001280068
:1042580000088800608380000000e00002003a0047
:10426800a0172200240007000028a9002028a80081
:10427800c00d21008040eb00014878000080fa0062
:10428800000006000200fa00000f78009e00780087
:1042980041088800c00d21008040eb0001487800eb
:1042a8000080fa00000006000000fa0040088000c4
:1042b8000080fa00000006000200fa00000f7800f3
:1042c8009e00780021088800c00d21008040eb0086
:1042d800014878000080fa00000006000000fa009b
:1042e800200880000080fa00000006000000fa00a4
:1042f8000080fa00000006000200fa00000f7800b3
:104308002028a9009e007800618388002028a80042
:104318000080fa00000006000000fa00c00d21002d
:104328008040eb00014878002028a80001e1a8009f
:104338000080fa00000006000000fa0001e1a90070
:104348002028a9000080fa00000006000200fa00f8
:10435800c00d2100104f78001e4078000004e000d6
:1043680003003200c00d21008040eb0001487800b6
:104378001e4078000080fa00000006000000fa00e5
:10438800d00d2100104078000080fb000080fa006a
:10439800000006000000fa00d00d21008040eb006c
:1043a800014878000080fa00000006000000fa00ca
:1043b80010002300307c8800400b2000407c8800df
:1043c8008c2fef0010042000507c88001010200073
:1043d800707c880060092000807c88001004200020
:1043e800907c88009a2fef00b82fef00ba2fef00cb
:1043f800be2fef00002def00a42fef00a62fef0037
:10440800a82fef00aa2fef00ae2fef00b02fef007c
:10441800b22fef003200200080072000a109200001
:1044280053f8200080497800814978008249780053
:1044380012002000600420007105200043f82000cd
:10444800804978008149780082497800000000009e
:10445800207c8000610060000000e000fcff3a0062
:1044680000000000217c8000000220000080600025
:104478000000e000fbff32000080fa0000000600a8
:104488000000fa00707c8000ee800a000000000046
:104498000080fb0000f0a7000000ea000000ea002e
:1044a8004f00de00004078000080fa00000006009f
:1044b8000000fa00062eef0000402100107188006d
:1044c8003e2eef00f001200010708800f0bf22009f
:1044d800f0708800f0002000d07188000c2eef00ea
:1044e800282eef00442eef000a2eef00262eef00b4
:1044f800422eef00082eef00242eef00402eef0092
:10450800f00120000070880040082000e07088005a
:1045180070002000c07188000000eb0051052000e9
:10452800b1468800a10a2000b146880000688800ca
:10453800d0c2b30028edb700b0c2b3002aedb7006f
:10454800516c800000fc2f00008060003000b30038
:10455800506c8800616c800000fc2f0000806000b7
:104568000000a000606c8800008020005105200039
:10457800b1468800a10a2000b1468800006888007a
:084588000080fa0000000600ab
:020000040000fa
:10459000dc10000002000000800000006c10000031
:1045a00002000000800000009010000012000000d7
:1045b00080000000501000000e000000800000008d
:1045c000a210000012000000800000005e10000039
:1045d0000e0000008000000000100000200000001d
:1045e000800000007010000020000000800000002b
:1045f0006e1000000200000082000000ffff0000bb
:10460000d81000000400000080000000b41000007a
:1046100012000000800000002010000018000000c0
:1046200080000000c61000001200000080000000a2
:10463000381000001800000080000000000000009a
:020000040000fa
:104640000200fa00000f780021028000200f2000f5
:10465000008060001e007000200288000080fa00c8
:10466000000006000000fa00c3e8a80000000000f7
:10467000000000000080fa00000006000000fa00c0
:104680008dff07004bff0700d4fd070067fe070002
:104690002df60700fbfa0700f1f70700b6f907004f
:1046a00018fc0700e7fe0700eeff070000022000ed
:1046b000e3ff07000080fa00000006000200fa0095
:1046c000000f78009e00780071838800ffff37009c
:1046d0000000fa0000072100800778008008210010
:1046e000000188000080fa00000006000000fa00c7
:0846f000e2ff0700ffff3700a5
:020000040000fa
:0446f800ffffff00c1
:020000040000fa
:020000040002f8
:04be0000ffffff0041
:020000040000fa
:020000040002f8
:04be2000ffffff0021
:020000040000fa
:020000040002f8
:04be300078ffff0098
:020000040000fa
:020000040002f8
:04be380078ffff0090
:020000040000fa
:020000040002f8
:04be40007453ff0038
:020000040000fa
:020000040002f8
:04be5000deffff0012
:020000040000fa
:020000040002f8
:04be58000000ff00e7
:020000040000fa
:020000040002f8
:04be60000000ff00df
:020000040000fa
:020000040002f8
:04be68000000ff00d7
:020000040000fa
:020000040002f8
:04be70000000ff00cf
:020000040000fa
:020000040002f8
:04be7800ffffff00c9
:020000040000fa
:020000040002f8
:04be8000ffffff00c1
:020000040000fa
:020000040002f8
:04be8800ffffff00b9
:020000040000fa
:020000040002f8
:04beb000ffffff0091
:020000040000fa
:020000040002f8
:04bec000ffffff0081
:020000040000fa
:020000040002f8
:04bed000ffffff0071
:020000040000fa
:020000040002f8
:04bee000ffffff0061
:020000040000fa
:020000040002f8
:04bef000ffffff0051
:00000001FF
